:100000000C94FD000C941A010C941A010C941A0122
:100010000C941A010C941A010C941A010C941A01F4
:100020000C941A010C941A010C9447030C9482034B
:100030000C941A010C941A010C941A010C941A01D4
:100040000C941A010C941A010C941A010C941A01C4
:100050000C941A010C941A010C941A010C941A01B4
:100060000C941A010C941A010C941A010C941A01A4
:100070000C941A010C941A010C941A010C941A0194
:100080000C941A010C941A010C941A010C941A0184
:100090000C941A010C941A010C941A010C941A0174
:1000A0000C941A010C941A010C941A01E402E10256
:1000B000DE02DB02D802D502D202CF02CC02C90294
:1000C000C602C302C002BD02BA02B702B402B10244
:1000D000AE02AB02A802A502A2029F029C029902F4
:1000E0009602930290028D028A02870284028102A4
:1000F0007E027B027802750272026F026C02690254
:100100006602630260025D025A0257025402510203
:100110004E024B024802450242023F023C023902B3
:100120003602330230022D022A0227022402000185
:10013000000062011200020000740143000300008D
:10014000B7010401030904BB011202030904CF0132
:100150000603030904D701080001C112018036011A
:1001600081361201000202000010C0167A0400015C
:100170000102030109024300020100C03209040028
:100180000001020201000524001001052401010103
:10019000042402060524060001070582031000401E
:1001A00009040100020A00000007050302400000E4
:1001B000070584024000000403090412034A002ECC
:1001C0000020004600690065006E00650000000622
:1001D000034D0032000000080334003100300000FD
:1001E000000A0020616E676C653A00706F74656E7E
:1001F00074696F6D65746572200011241FBECFEFA6
:10020000DAE0DEBFCDBF11E0A0E0B1E0EEECF5E159
:1002100002C005900D92A43AB107D9F711E0A4EA03
:10022000B1E001C01D92A83AB107E1F70E9433087E
:100230000C94E50A0C94000081E08093D70080EADA
:100240008093D80082E189BD09B400FEFDCF80E92A
:100250008093D8001092E0001092A4011092A501A2
:100260008CE08093E200789408958091A401089531
:100270009FB7F8948091A401882339F083E080939C
:10028000E9008091E80085FD03C09FBF8FEF0895CE
:100290002091F1008091E80085FD03C08BE68093FA
:1002A000E8009FBF822F08959FB7F8948091A40122
:1002B000882329F083E08093E9008091F2009FBFBA
:1002C00008958091A401882371F09FB7F89483E08A
:1002D0008093E9002BE602C02093E8008091E800BB
:1002E00085FDFACF9FBF0895482F8091A4018823F0
:1002F000D9F12FB7F89484E08093E9008091A701A9
:10030000882341F08091E80085FD02C02FBF12C014
:100310001092A7019091E400975E34E08091E8008C
:1003200085FD13C02FBF8091E400891729F481E077
:100330008093A7018FEF08958091A4018823A1F0F5
:100340002FB7F8943093E900E9CF4093F100809102
:10035000E80085FD03C08AE38093E80085E0809390
:10036000A6012FBF80E008958FEF0895282F809178
:10037000A401882351F09FB7F89484E08093E900AA
:100380008091E80085FD03C09FBF8FEF0895209303
:10039000F1008091E80085FD03C08AE38093E800C6
:1003A00085E08093A6019FBF80E00895CF93DF93FF
:1003B000EC018091A401882309F41CC13FB7F89493
:1003C00084E08093E9008091A701882309F407C1A4
:1003D0008091E80085FD02C03FBF0CC11092A701CB
:1003E000FEC09091E400975E8091E80085FD13C007
:1003F0003FBF8091E400891721F481E08093A70139
:10040000F9C08091A401882309F4F4C03FB7F8949F
:100410005093E900E9CF8091F2002A2F281B822F08
:1004200090E06817790708F4262F822F90E0813436
:10043000910508F0C6C08A5A9F4FFC01EE0FFF1FBE
:100440000590F491E02D099489918093F1008991B0
:100450008093F10089918093F10089918093F1005C
:1004600089918093F10089918093F1008991809323
:10047000F10089918093F10089918093F100899135
:100480008093F10089918093F10089918093F1002C
:1004900089918093F10089918093F10089918093F3
:1004A000F10089918093F10089918093F100899105
:1004B0008093F10089918093F10089918093F100FC
:1004C00089918093F10089918093F10089918093C3
:1004D000F10089918093F10089918093F1008991D5
:1004E0008093F10089918093F10089918093F100CC
:1004F00089918093F10089918093F1008991809393
:10050000F10089918093F10089918093F1008991A4
:100510008093F10089918093F10089918093F1009B
:1005200089918093F10089918093F1008991809362
:10053000F10089918093F10089918093F100899174
:100540008093F10089918093F10089918093F1006B
:1005500089918093F10089918093F1008991809332
:10056000F10089918093F10089918093F100899144
:100570008093F10089918093F10089918093F1003B
:1005800089918093F10089918093F1008991809302
:10059000F10089918093F10089918093F100899114
:1005A0008093F10089918093F10089918093F1000B
:1005B00089918093F10089918093F10089918093D2
:1005C000F10089918093F1008091E80085FD02C0DF
:1005D000B093E800621B71094093A60104C054E087
:1005E000A0E4BAE345E06115710509F0FACE3FBF1A
:1005F00080E001C08FEFDF91CF9108959FB7F8940D
:100600008091A601882341F084E08093E9008AE389
:100610008093E8001092A6019FBF08958091040185
:1006200008958091050108958091060108958091B3
:10063000A5010895382F9FB7F8948091A4018823CD
:1006400039F022E02093E9008091E80085FD03C0A5
:100650009FBF8FEF089581EA8093F10080E280933D
:10066000F1001092F1001092F1001092F10010923E
:10067000F1002093F1001092F1003093F1001092FC
:10068000F1008AE38093E8009FBF80E008951F9205
:100690000F920FB60F9211248F939F938091E100D8
:1006A0001092E100982F83FF11C01092E90081E0C1
:1006B0008093EB001092EC0082E18093ED0088E0E3
:1006C0008093F0001092A4011092A50192FF13C034
:1006D0008091A401882379F08091A601882359F0A4
:1006E00081508093A601882331F484E08093E9004F
:1006F0008AE38093E8009F918F910F900FBE0F9037
:100700001F9018951F920F920FB60F9211240F93FE
:100710001F932F933F934F935F936F937F938F9389
:100720009F93AF93BF93EF93FF931092E900809153
:10073000E80083FF3CC14091F1003091F1008091CD
:10074000F100682F70E02091F100922F80E0682B7B
:10075000792B8091F100A82FB0E02091F100922F29
:1007600080E0A82BB92B1091F1000091F10082EFED
:100770008093E800363009F05AC025E331E0A90142
:1007800045505040F9013797859194918617970706
:1007900001F5FA01859194918A179B07D1F49A018A
:1007A0002E5F3F4FF901659174912E5F3F4FF90124
:1007B0004491212F30E0902F80E0282B392B2F3FC0
:1007C000310519F010F02FEF30E0241758F4422FC4
:1007D00009C0295F3F4F495F5F4FF1E02F353F0769
:1007E00089F6E5C05EEF8091E800282F30E0C9016E
:1007F00085709070892BB9F322FDDCC0342F413114
:1008000008F030E1232FCB0106C0FC010196E491F2
:10081000E093F10021502223C1F7630F711D431BA8
:100820005093E8004423F9F63031E9F2C3C0353083
:1008300061F48EEF8093E8008091E80080FFFCCFA8
:10084000862F80688093E300B5C0393051F544238A
:1008500009F0ADC06093A4011092A5011092A60109
:100860008EEF8093E80088E591E021E02093E90095
:10087000FC010196E491E093EB00EE2369F0AC01FA
:100880004F5F5F4FFC0184918093EC00CA01019699
:10089000FA0134913093ED002F5F253039F78EE166
:1008A00081C0383061F4403809F081C08091E8009F
:1008B00080FFFCCF8091A4018093F10050C03132C1
:1008C00089F4413A09F073C08091E80080FFFCCFC1
:1008D000E0E0F1E081918093F10081E0E730F807FA
:1008E000C9F73DC03032A1F4413209F060C08091B7
:1008F000E80082FFFCCFE0E0F1E08091F10081931D
:1009000081E0E730F807C9F78BEF8093E80027C054
:10091000323251F4413209F04AC06093A50180910E
:10092000E80080FFFCCF1BC03323E9F48091E8008E
:1009300080FFFCCF423811F080E00DC0A093E900A9
:100940008091EB0090E025E0969587952A95E1F758
:1009500081701092E9008093F1001092F1008EEF07
:100960008093E80027C0313011F0333001F5423078
:10097000F1F4672BE1F42A2F2F77822F81508430F6
:10098000B0F48EEF8093E8002093E900333079F0E3
:1009900089E18093EB0081E090E002C0880F991F0D
:1009A0002A95E2F78093EA001092EA0003C081E200
:1009B0008093EB00FF91EF91BF91AF919F918F9149
:1009C0007F916F915F914F913F912F911F910F9167
:1009D0000F900FBE0F901F9018951F93CF93DF932A
:1009E000EC01FE0121961491112349F01A3019F4FB
:1009F0008DE00E947401812F0E947401F2CFDF917B
:100A0000CF911F910895982F8A3010F087E301C08D
:100A100080E3890F0E94740108951F93182F829517
:100A20008F700E940305812F8F700E9403051F9114
:100A300008951F93182F892F0E940D05812F0E9462
:100A40000D051F9108950E940D050895EF92FF92E4
:100A50000F931F93DF93CF93CDB7DEB72B970FB6CE
:100A6000F894DEBF0FBECDBF8E010F5F1F4F2BE08E
:100A7000F80111922A95E9F7A8012AE030E00E94D6
:100A8000780A3BE0E32EF12CEC0EFD1EF80180818C
:100A9000882311F00E9474010F5F1F4F0E151F0570
:100AA000A9F72B960FB6F894DEBF0FBECDBFCF913E
:100AB000DF911F910F91FF90EF900895EF92FF92B9
:100AC0000F931F93DF93CF93CDB7DEB72B970FB65E
:100AD000F894DEBF0FBECDBF8E010F5F1F4F2BE01E
:100AE000F80111922A95E9F7A8012AE030E00E9466
:100AF0003C0A4CE0E42EF12CEC0EFD1EF801808146
:100B0000882311F00E9474010F5F1F4F0E151F05FF
:100B1000A9F72B960FB6F894DEBF0FBECDBFCF91CD
:100B2000DF911F910F91FF90EF900895EF92FF9248
:100B30000F931F93DF93CF9300D000D000D0CDB799
:100B4000DEB78E010F5F1F4F26E0F80111922A9544
:100B5000E9F7B8014AE050E00E949D0A56E0E52E10
:100B6000F12CEC0EFD1EF8018081882311F00E940B
:100B700074010F5F1F4F0E151F05A9F726960FB6BC
:100B8000F894DEBF0FBECDBFCF91DF911F910F91C3
:100B9000FF90EF900895EF92FF920F931F93DF93D2
:100BA000CF93CDB7DEB727970FB6F894DEBF0FBE51
:100BB000CDBF8E010F5F1F4F27E0F80111922A95DC
:100BC000E9F7B8014AE050E00E941B0A68E0E62E0F
:100BD000F12CEC0EFD1EF8018081882311F00E949B
:100BE00074010F5F1F4F0E151F05A9F727960FB64B
:100BF000F894DEBF0FBECDBFCF91DF911F910F9153
:100C0000FF90EF900895DC01FB0181918D93882383
:100C1000E1F70895AC0124B181E090E0042E02C018
:100C2000880F991F0A94E2F7282B24B94630510502
:100C300049F48091800080628093800080918000E0
:100C40008F7E17C04730510549F48091800088603D
:100C500080938000809180008B7F0BC045305105D0
:100C600051F48091800080688093800080918000A2
:100C70008F7B8093800080918100816080938100D0
:100C800080918100826080938100809180008E7FBE
:100C900080938000809180008260809380008091AA
:100CA00081008860809381008091810080618093C1
:100CB000810088E893E190938700809386000895EF
:100CC000CF93DF9380917A00806880937A0080913F
:100CD0007A00806480937A0080917A0084FFFCCF50
:100CE00080917A00806180937A008BEE91E00E947F
:100CF000ED0480911101909112010E94960583EEFE
:100D000091E00E94ED0480917800909179000E941A
:100D1000960581EE91E00E94ED04C0911101D09101
:100D20001201C130D10509F5609178007091790008
:100D300080E090E00E94E50820E030E44CE954E4D3
:100D40000E94730920E030E040E85AE30E947309F2
:100D500020E030E048EC52E40E9455080E94B908B7
:100D600070938B0060938A0047C0C230D10509F5AB
:100D7000609178007091790080E090E00E94E50831
:100D800020E030E44CE954E40E94730920E030E0B4
:100D900040E85AE30E94730920E030E048EC52E456
:100DA0000E9455080E94B90870938D0060938C00D2
:100DB00023C0C330D10501F56091780070917900AE
:100DC00080E090E00E94E50820E030E44CE954E443
:100DD0000E94730920E030E040E85AE30E94730962
:100DE00020E030E048EC52E40E9455080E94B90827
:100DF0007093890060938800CE0163E070E00E94E8
:100E0000D6090196909312018093110180917A0086
:100E1000806480937A00DF91CF9108954F925F9222
:100E20006F927F928F929F92AF92BF92CF92DF92FA
:100E3000EF92FF921F93DF93CF93CDB7DEB72A9740
:100E40000FB6F894DEBF0FBECDBF2C01DE011196A8
:100E5000E7E0F1E086E001900D928150E1F71F821A
:100E6000188619861A8680E88093610010926100C6
:100E700080917C008F7780937C0080917C008064DF
:100E800080937C0080917A00846080937A008091C6
:100E90007A00826080937A0080917A0081608093EA
:100EA0007A0080917B008F7D80937B0080917C0015
:100EB0008B7F80937C0080917C008D7F80937C0071
:100EC00080917C008E7F80937C002BE8A22E21E015
:100ED000B22E93E1C92E91E0D92EEE24FF244E01CB
:100EE0000894811C911C81E0682E712CF501808191
:100EF00091814816590609F090C0D601F4018D91F0
:100F000081938823E1F7F6E0EF16F1049CF5109148
:100F10007E00C4010E94FD09930102C0220F331F0D
:100F20008A95E2F7C9018095812380937E0032E0A3
:100F3000E316F1047CF080917C00846080937C0057
:100F400084E0E816F1045CF080917C00826080937C
:100F50007C0005C091E0E916F10409F442C0E3E029
:100F6000EE16F10409F43DC0F5E0EF16F10409F0C6
:100F700054C037C02AE0E216F104B9F110917E00A6
:100F8000C4010E94FD09F30102C0EE0FFF1F8A9504
:100F9000E2F7CF018095812380937E0080917B00D2
:100FA000806280937B00FAE0EF16F1042CF08091D0
:100FB0007C00846080937C00C7010897029728F426
:100FC00080917C00826080937C0027E0E216F1042F
:100FD00041F039E0E316F10421F08BE0E816F1046A
:100FE000E1F480917C00816016C010917E00C40104
:100FF0000E94FD09F30102C0EE0FFF1F8A95E2F780
:101000001E2B10937E0080917B00806280937B007A
:1010100080917C00846080937C000894E11CF11C2A
:1010200022E030E0A20EB31E8AE090E0C80ED91E86
:101030009CE0E916F10409F059CF2A960FB6F8940E
:10104000DEBF0FBECDBFCF91DF911F91FF90EF901C
:10105000DF90CF90BF90AF909F908F907F906F90D8
:101060005F904F9008950E941C0186E090E00E94DE
:101070000A0680E090E00E940E070E94600687E06A
:1010800090E00E940A0681E090E00E940E070E9414
:10109000600685E090E00E940A0682E090E00E94EF
:1010A0000E070E946006E1CF5058BB27AA270ED03A
:1010B000E0C0D1D030F0D6D020F031F49F3F11F411
:1010C0001EF4C6C00EF4E095E7FBBCC0E92FE2D0E9
:1010D00080F3BA17620773078407950718F071F455
:1010E0009EF5FAC00EF4E0950B2EBA2FA02D0B0141
:1010F000B90190010C01CA01A0011124FF27591B5D
:1011000099F0593F50F4503E68F11A16F040A22F62
:10111000232F342F4427585FF3CF469537952795D3
:10112000A795F0405395C9F77EF41F16BA0B620BD2
:10113000730B840BBAF09150A1F0FF0FBB1F661F19
:10114000771F881FC2F70EC0BA0F621F731F841F5C
:1011500048F4879577956795B795F7959E3F08F082
:10116000B3CF9395880F08F09927EE0F9795879541
:10117000089598D088F09F5790F0B92F9927B751CC
:10118000A0F0D1F0660F771F881F991F1AF0BA954B
:10119000C9F712C0B13081F09FD0B1E008959CC072
:1011A000672F782F8827B85F39F0B93FCCF3869541
:1011B00077956795B395D9F73EF49095809570959E
:1011C00061957F4F8F4F9F4F0895E89409C097FB1B
:1011D0003EF490958095709561957F4F8F4F9F4F0E
:1011E0009923A9F0F92F96E9BB279395F695879552
:1011F00077956795B795F111F8CFFAF4BB0F11F415
:1012000060FF1BC06F5F7F4F8F4F9F4F16C08823BB
:1012100011F096E911C0772321F09EE8872F762FF1
:1012200005C0662371F096E8862F70E060E02AF032
:101230009A95660F771F881FDAF7880F969587951E
:1012400097F9089597F99F6780E870E060E0089546
:101250009FEF80EC089500240A94161617061806CE
:101260000906089500240A941216130614060506AA
:101270000895092E0394000C11F4882352F0BB0F3B
:1012800040F4BF2B11F460FF04C06F5F7F4F8F4F9E
:101290009F4F089557FD9058440F551F59F05F3FD9
:1012A00071F04795880F97FB991F61F09F3F79F088
:1012B00087950895121613061406551FF2CF46950A
:1012C000F1DF08C0161617061806991FF1CF86958C
:1012D0007105610508940895E894BB276627772770
:1012E000CB0197F908950BD0C4CFB5DF28F0BADF52
:1012F00018F0952309F0A6CFABCF1124EECFCADFAB
:10130000A0F3959FD1F3950F50E0551F629FF00118
:10131000729FBB27F00DB11D639FAA27F00DB11D71
:10132000AA1F649F6627B00DA11D661F829F2227FA
:10133000B00DA11D621F739FB00DA11D621F839F81
:10134000A00D611D221F749F3327A00D611D231F57
:10135000849F600D211D822F762F6A2F11249F57A5
:1013600050408AF0E1F088234AF0EE0FFF1FBB1FC8
:10137000661F771F881F91505040A9F79E3F510567
:1013800070F060CFAACF5F3FECF3983EDCF3869518
:1013900077956795B795F795E7959F5FC1F7FE2B12
:1013A000880F911D9695879597F9089597FB092EBB
:1013B00007260AD077FD04D00CD006D000201AF4FE
:1013C000709561957F4F0895F6F7909581959F4FA1
:1013D0000895AA1BBB1B51E107C0AA1FBB1FA6177C
:1013E000B70710F0A61BB70B881F991F5A95A9F7CE
:1013F00080959095BC01CD010895FC01882799271F
:10140000E89421912032E9F3293010F02E30C8F30E
:101410002B3241F02D3239F4689404C00E94700AD6
:10142000820F911D219120532A30C0F31EF4909514
:1014300081959F4F0895FB019F01E8944230C4F0CD
:101440004532B4F44A3029F497FB1EF49095819507
:101450009F4F642F77270E94E909805D8A330CF043
:10146000895D8193CB010097A1F716F45DE251935A
:101470001082C9010C94B30AFA01CF93FF93EF9342
:10148000223044F1253234F5C22FE894CA3049F4B1
:1014900097FB3EF490958095709561957F4F8F4FA7
:1014A0009F4F2C2F332744275527FF93EF930E94FC
:1014B000C30AEF91FF91605D6A330CF0695D61933F
:1014C000B901CA01605070408040904051F716F455
:1014D000CDE2C19310828F919F91CF910C94B30A6A
:1014E0007AE0979F902D879F802D910D112408956C
:1014F000FA01CF93FF93EF932230CCF02532BCF466
:10150000C22F2C2F332744275527FF93EF930E9498
:10151000C30AEF91FF91605D6A330CF0695D6193DE
:10152000B901CA01605070408040904051F710826C
:101530008F919F91CF910C94B30AFB019F01423090
:1015400074F0453264F4642F77270E94E909805DC6
:101550008A330CF0895D8193CB010097A1F710824B
:10156000C9010C94B30ADC01FC01672F7191772348
:10157000E1F7329704C07C916D9370836291AE174E
:10158000BF07C8F30895A1E21A2EAA1BBB1BFD01D9
:101590000DC0AA1FBB1FEE1FFF1FA217B307E40752
:1015A000F50720F0A21BB30BE40BF50B661F771FAA
:1015B000881F991F1A9469F760957095809590958A
:0E15C0009B01AC01BD01CF010895F894FFCF4F
:1015CE0000E10000000008414443304400000000E8
:1015DE0000010041444330440000000000414443F8
:1015EE003144000000000041444334440000000038
:1015FE00004144433544000000000041444336445A
:10160E000000000000414443374400000000004148
:10161E004443384400000000004144433944000074
:10162E000000004144433130440000000041444377
:10163E003131440000000041444331324400000087
:10164E000041444331334400000000000001000219
:10165E000003000400050006000700080009000A48
:04166E00000B00006D
:00000001FF
