:100000000C94F5000C9412010C9412010C94120142
:100010000C9412010C9412010C9412010C94120114
:100020000C9412010C9412010C943F030C947A036B
:100030000C9412010C9412010C9412010C941201F4
:100040000C9412010C9412010C9412010C941201E4
:100050000C9412010C9412010C9412010C941201D4
:100060000C9412010C9412010C9412010C941201C4
:100070000C9412010C9412010C9412010C941201B4
:100080000C9412010C9412010C9412010C941201A4
:100090000C9412010C9412010C9412010C94120194
:1000A0000C9412010C9412010C941201DC02D9027E
:1000B000D602D302D002CD02CA02C702C402C102D4
:1000C000BE02BB02B802B502B202AF02AC02A90284
:1000D000A602A302A0029D029A0297029402910234
:1000E0008E028B028802850282027F027C027902E4
:1000F0007602730270026D026A0267026402610294
:100100005E025B025802550252024F024C02490243
:100110004602430240023D023A02370234023102F3
:100120002E022B022802250222021F021C020001BD
:10013000000062011200020000740143000300008D
:10014000B7010401030904BB011202030904CF0132
:100150000603030904D701080001C112018036011A
:1001600081361201000202000010C0167A0400015C
:100170000102030109024300020100C03209040028
:100180000001020201000524001001052401010103
:10019000042402060524060001070582031000401E
:1001A00009040100020A00000007050302400000E4
:1001B000070584024000000403090412034A002ECC
:1001C0000020004600690065006E00650000000622
:1001D000034D0032000000080334003100300000FD
:1001E000000D20414443203D200011241FBECFEFCD
:1001F000DAE0DEBFCDBF11E0A0E0B1E0ECE9F0E174
:1002000002C005900D92A23AB107D9F711E0A2EA17
:10021000B1E001C01D92A63AB107E1F70E9445077F
:100220000C944C080C94000081E08093D70080EA85
:100230008093D80082E189BD09B400FEFDCF80E93A
:100240008093D8001092E0001092A2011092A301B6
:100250008CE08093E200789408958091A201089543
:100260009FB7F8948091A201882339F083E08093AE
:10027000E9008091E80085FD03C09FBF8FEF0895DE
:100280002091F1008091E80085FD03C08BE680930A
:10029000E8009FBF822F08959FB7F8948091A20134
:1002A000882329F083E08093E9008091F2009FBFCA
:1002B00008958091A201882371F09FB7F89483E09C
:1002C0008093E9002BE602C02093E8008091E800CB
:1002D00085FDFACF9FBF0895482F8091A201882302
:1002E000D9F12FB7F89484E08093E9008091A501BB
:1002F000882341F08091E80085FD02C02FBF12C025
:100300001092A5019091E400975E34E08091E8009E
:1003100085FD13C02FBF8091E400891729F481E087
:100320008093A5018FEF08958091A2018823A1F009
:100330002FB7F8943093E900E9CF4093F100809112
:10034000E80085FD03C08AE38093E80085E08093A0
:10035000A4012FBF80E008958FEF0895282F80918A
:10036000A201882351F09FB7F89484E08093E900BC
:100370008091E80085FD03C09FBF8FEF0895209313
:10038000F1008091E80085FD03C08AE38093E800D6
:1003900085E08093A4019FBF80E00895CF93DF9311
:1003A000EC018091A201882309F41CC13FB7F894A5
:1003B00084E08093E9008091A501882309F407C1B6
:1003C0008091E80085FD02C03FBF0CC11092A501DD
:1003D000FEC09091E400975E8091E80085FD13C017
:1003E0003FBF8091E400891721F481E08093A5014B
:1003F000F9C08091A201882309F4F4C03FB7F894B2
:100400005093E900E9CF8091F2002A2F281B822F18
:1004100090E06817790708F4262F822F90E0813446
:10042000910508F0C6C08A5A9F4FFC01EE0FFF1FCE
:100430000590F491E02D099489918093F1008991C0
:100440008093F10089918093F10089918093F1006C
:1004500089918093F10089918093F1008991809333
:10046000F10089918093F10089918093F100899145
:100470008093F10089918093F10089918093F1003C
:1004800089918093F10089918093F1008991809303
:10049000F10089918093F10089918093F100899115
:1004A0008093F10089918093F10089918093F1000C
:1004B00089918093F10089918093F10089918093D3
:1004C000F10089918093F10089918093F1008991E5
:1004D0008093F10089918093F10089918093F100DC
:1004E00089918093F10089918093F10089918093A3
:1004F000F10089918093F10089918093F1008991B5
:100500008093F10089918093F10089918093F100AB
:1005100089918093F10089918093F1008991809372
:10052000F10089918093F10089918093F100899184
:100530008093F10089918093F10089918093F1007B
:1005400089918093F10089918093F1008991809342
:10055000F10089918093F10089918093F100899154
:100560008093F10089918093F10089918093F1004B
:1005700089918093F10089918093F1008991809312
:10058000F10089918093F10089918093F100899124
:100590008093F10089918093F10089918093F1001B
:1005A00089918093F10089918093F10089918093E2
:1005B000F10089918093F1008091E80085FD02C0EF
:1005C000B093E800621B71094093A40104C054E099
:1005D000A0E4BAE345E06115710509F0FACE3FBF2A
:1005E00080E001C08FEFDF91CF9108959FB7F8941D
:1005F0008091A401882341F084E08093E9008AE39C
:100600008093E8001092A4019FBF08958091040197
:1006100008958091050108958091060108958091C3
:10062000A3010895382F9FB7F8948091A2018823E1
:1006300039F022E02093E9008091E80085FD03C0B5
:100640009FBF8FEF089581EA8093F10080E280934D
:10065000F1001092F1001092F1001092F10010924E
:10066000F1002093F1001092F1003093F10010920C
:10067000F1008AE38093E8009FBF80E008951F9215
:100680000F920FB60F9211248F939F938091E100E8
:100690001092E100982F83FF11C01092E90081E0D1
:1006A0008093EB001092EC0082E18093ED0088E0F3
:1006B0008093F0001092A2011092A30192FF13C048
:1006C0008091A201882379F08091A401882359F0B8
:1006D00081508093A401882331F484E08093E90061
:1006E0008AE38093E8009F918F910F900FBE0F9047
:1006F0001F9018951F920F920FB60F9211240F930F
:100700001F932F933F934F935F936F937F938F9399
:100710009F93AF93BF93EF93FF931092E900809163
:10072000E80083FF3CC14091F1003091F1008091DD
:10073000F100682F70E02091F100922F80E0682B8B
:10074000792B8091F100A82FB0E02091F100922F39
:1007500080E0A82BB92B1091F1000091F10082EFFD
:100760008093E800363009F05AC025E331E0A90152
:1007700045505040F9013797859194918617970716
:1007800001F5FA01859194918A179B07D1F49A019A
:100790002E5F3F4FF901659174912E5F3F4FF90134
:1007A0004491212F30E0902F80E0282B392B2F3FD0
:1007B000310519F010F02FEF30E0241758F4422FD4
:1007C00009C0295F3F4F495F5F4FF1E02F353F0779
:1007D00089F6E5C05EEF8091E800282F30E0C9017E
:1007E00085709070892BB9F322FDDCC0342F413124
:1007F00008F030E1232FCB0106C0FC010196E49103
:10080000E093F10021502223C1F7630F711D431BB8
:100810005093E8004423F9F63031E9F2C3C0353093
:1008200061F48EEF8093E8008091E80080FFFCCFB8
:10083000862F80688093E300B5C0393051F544239A
:1008400009F0ADC06093A2011092A3011092A4011F
:100850008EEF8093E80088E591E021E02093E900A5
:10086000FC010196E491E093EB00EE2369F0AC010A
:100870004F5F5F4FFC0184918093EC00CA010196A9
:10088000FA0134913093ED002F5F253039F78EE176
:1008900081C0383061F4403809F081C08091E800AF
:1008A00080FFFCCF8091A2018093F10050C03132D3
:1008B00089F4413A09F073C08091E80080FFFCCFD1
:1008C000E0E0F1E081918093F10081E0E730F8070A
:1008D000C9F73DC03032A1F4413209F060C08091C7
:1008E000E80082FFFCCFE0E0F1E08091F10081932D
:1008F00081E0E730F807C9F78BEF8093E80027C065
:10090000323251F4413209F04AC06093A301809120
:10091000E80080FFFCCF1BC03323E9F48091E8009E
:1009200080FFFCCF423811F080E00DC0A093E900B9
:100930008091EB0090E025E0969587952A95E1F768
:1009400081701092E9008093F1001092F1008EEF17
:100950008093E80027C0313011F0333001F5423088
:10096000F1F4672BE1F42A2F2F77822F8150843006
:10097000B0F48EEF8093E8002093E900333079F0F3
:1009800089E18093EB0081E090E002C0880F991F1D
:100990002A95E2F78093EA001092EA0003C081E210
:1009A0008093EB00FF91EF91BF91AF919F918F9159
:1009B0007F916F915F914F913F912F911F910F9177
:1009C0000F900FBE0F901F9018951F93CF93DF933A
:1009D000EC01FE0121961491112349F01A3019F40B
:1009E0008DE00E946C01812F0E946C01F2CFDF919B
:1009F000CF911F910895982F8A3010F087E301C09E
:100A000080E3890F0E946C0108951F93182F82952F
:100A10008F700E94FB04812F8F700E94FB041F9136
:100A200008951F93182F892F0E940505812F0E947A
:100A300005051F9108950E9405050895EF92FF9204
:100A40000F931F93DF93CF93CDB7DEB72B970FB6DE
:100A5000F894DEBF0FBECDBF8E010F5F1F4F2BE09E
:100A6000F80111922A95E9F7A8012AE030E00E94E6
:100A7000CB073BE0E32EF12CEC0EFD1EF80180814C
:100A8000882311F00E946C010F5F1F4F0E151F0588
:100A9000A9F72B960FB6F894DEBF0FBECDBFCF914E
:100AA000DF911F910F91FF90EF900895EF92FF92C9
:100AB0000F931F93DF93CF93CDB7DEB72B970FB66E
:100AC000F894DEBF0FBECDBF8E010F5F1F4F2BE02E
:100AD000F80111922A95E9F7A8012AE030E00E9476
:100AE0008F074CE0E42EF12CEC0EFD1EF801808106
:100AF000882311F00E946C010F5F1F4F0E151F0518
:100B0000A9F72B960FB6F894DEBF0FBECDBFCF91DD
:100B1000DF911F910F91FF90EF900895EF92FF9258
:100B20000F931F93DF93CF9300D000D000D0CDB7A9
:100B3000DEB78E010F5F1F4F26E0F80111922A9554
:100B4000E9F7B8014AE050E00E94F00756E0E52ED0
:100B5000F12CEC0EFD1EF8018081882311F00E941B
:100B60006C010F5F1F4F0E151F05A9F726960FB6D4
:100B7000F894DEBF0FBECDBFCF91DF911F910F91D3
:100B8000FF90EF900895EF92FF920F931F93DF93E2
:100B9000CF93CDB7DEB727970FB6F894DEBF0FBE61
:100BA000CDBF8E010F5F1F4F27E0F80111922A95EC
:100BB000E9F7B8014AE050E00E946E0768E0E62ECF
:100BC000F12CEC0EFD1EF8018081882311F00E94AB
:100BD0006C010F5F1F4F0E151F05A9F727960FB663
:100BE000F894DEBF0FBECDBFCF91DF911F910F9163
:100BF000FF90EF900895DC01FB0181918D93882394
:100C0000E1F7089580917A00806880937A0080915E
:100C10007A00806480937A0080917A0084FFFCCF10
:100C200080917A00806180937A0081EE91E00E9449
:100C3000E50480917800909179000E948E05E7CFBD
:100C40004F925F926F927F928F929F92AF92BF92DC
:100C5000CF92DF92EF92FF921F93DF93CF93CDB7A6
:100C6000DEB72A970FB6F894DEBF0FBECDBF2C01BA
:100C7000DE011196E7E0F1E086E001900D928150EF
:100C8000E1F71F82188619861A8680E88093610032
:100C90001092610080917C008F7780937C0080911E
:100CA0007C00806480937C0080917A0084608093D3
:100CB0007A0080917A00826080937A0080917A0035
:100CC000816080937A0080917B008F7D80937B0090
:100CD00080917C008B7F80937C0080917C008D7F55
:100CE00080937C0080917C008E7F80937C0029E83B
:100CF000A22E21E0B22E91E1C92E91E0D92EEE2450
:100D0000FF244E010894811C911C81E0682E712CF7
:100D1000F501808191814816590609F090C0D601ED
:100D2000F4018D9181938823E1F7F6E0EF16F10449
:100D30009CF510917E00C4010E945007930102C0EF
:100D4000220F331F8A95E2F7C90180958123809392
:100D50007E0032E0E316F1047CF080917C00846038
:100D600080937C0084E0E816F1045CF080917C00C4
:100D7000826080937C0005C091E0E916F10409F4DB
:100D800042C0E3E0EE16F10409F43DC0F5E0EF16D1
:100D9000F10409F054C037C02AE0E216F104B9F1B9
:100DA00010917E00C4010E945007F30102C0EE0FB3
:100DB000FF1F8A95E2F7CF018095812380937E0003
:100DC00080917B00806280937B00FAE0EF16F10453
:100DD0002CF080917C00846080937C00C701089790
:100DE000029728F480917C00826080937C0027E049
:100DF000E216F10441F039E0E316F10421F08BE052
:100E0000E816F104E1F480917C00816016C0109135
:100E10007E00C4010E945007F30102C0EE0FFF1FC5
:100E20008A95E2F71E2B10937E0080917B008062F2
:100E300080937B0080917C00846080937C00089488
:100E4000E11CF11C22E030E0A20EB31E8AE090E02B
:100E5000C80ED91E9CE0E916F10409F059CF2A9674
:100E60000FB6F894DEBF0FBECDBFCF91DF911F91BB
:100E7000FF90EF90DF90CF90BF90AF909F908F90BA
:100E80007F906F905F904F9008950E94140180E0D2
:100E900090E00E9420060E94020680E090E0089503
:100EA000FC0188279927E89421912032E9F3293021
:100EB00010F02E30C8F32B3241F02D3239F4689403
:100EC00004C00E94C307820F911D219120532A3034
:100ED000C0F31EF4909581959F4F0895FB019F01EB
:100EE000E8944230C4F04532B4F44A3029F497FB18
:100EF0001EF4909581959F4F642F77270E941608C6
:100F0000805D8A330CF0895D8193CB010097A1F756
:100F100016F45DE251931082C9010C940608FA019F
:100F2000CF93FF93EF93223044F1253234F5C22F53
:100F3000E894CA3049F497FB3EF4909580957095FB
:100F400061957F4F8F4F9F4F2C2F33274427552775
:100F5000FF93EF930E942A08EF91FF91605D6A333F
:100F60000CF0695D6193B901CA0160507040804026
:100F7000904051F716F4CDE2C19310828F919F916A
:100F8000CF910C9406087AE0979F902D879F802D33
:100F9000910D11240895FA01CF93FF93EF9322301E
:100FA000CCF02532BCF4C22F2C2F332744275527F1
:100FB000FF93EF930E942A08EF91FF91605D6A33DF
:100FC0000CF0695D6193B901CA01605070408040C6
:100FD000904051F710828F919F91CF910C94060809
:100FE000FB019F01423074F0453264F4642F77278F
:100FF0000E941608805D8A330CF0895D8193CB01D5
:101000000097A1F71082C9010C940608DC01FC01CD
:10101000672F71917723E1F7329704C07C916D932C
:1010200070836291AE17BF07C8F30895AA1BBB1B5C
:1010300051E107C0AA1FBB1FA617B70710F0A61BD8
:10104000B70B881F991F5A95A9F780959095BC01F9
:10105000CD010895A1E21A2EAA1BBB1BFD010DC0F4
:10106000AA1FBB1FEE1FFF1FA217B307E407F50758
:1010700020F0A21BB30BE40BF50B661F771F881F34
:10108000991F1A9469F760957095809590959B01CA
:0C109000AC01BD01CF010895F894FFCF22
:10109C0000E100000000084144433044000000001F
:1010AC0000414443304400000000004144433144BB
:1010BC0000000000004144433444000000000041A3
:1010CC0044433544000000000041444336440000D2
:1010DC0000000041444337440000000000414443F9
:1010EC003844000000000041444339440000000033
:1010FC00004144433130440000000041444331314D
:10110C0044000000004144433132440000000041DF
:10111C00444331334400000000000001000200038E
:10112C00000400050006000700080009000A000B77
:02113C000000B1
:00000001FF
